:100000000EC015C014C013C012C011C010C00FC064
:100010000EC00DC00CC00BC00AC009C008C011241E
:100020001FBECFE5D2E0DEBFCDBF5AD06BC0E8CF58
:10003000382F662369F06130B1F427B381E090E096
:1000400002C0880F991F3A95E2F7282B27BB089525
:1000500027B381E090E002C0880F991F3A95E2F73C
:100060008095822387BB0895382F662369F061301D
:10007000B1F428B381E090E002C0880F991F3A954F
:10008000E2F7282B28BB089528B381E090E002C056
:10009000880F991F3A95E2F78095822388BB0895CF
:1000A00088BB0895882329F0813021F48FEF87BB26
:1000B000089517BA089526B330E002C03595279504
:1000C0008A95E2F7822F8170089598B321E030E09D
:1000D00002C0220F331F8A95E2F7922798BB08953A
:1000E00080E060E0A5DF81E061E0A2DF80E061E028
:1000F000BBDF80E0E0DF882311F481E0F8CF81E00E
:0801000060E0F6CFF894FFCF98
:00000001FF
